:100000000213570214ED02170922220216490217A1
:0100100022CD
:0600130002001E0216C5EA
:10001B00021471C0E0C0F0C083C082C0D075D000A4
:10002B00C000C005C007900628E054187003020DED
:10003B009190022EE04401F0900590E04401F0A372
:10004B00E4F0A3F0A3F0A3F0A3F0A3F090058FF0DE
:10005B00900520F0A3F090060AE030E615E0549BE3
:10006B00F0900607E04480F0E0547FF090040574B4
:10007B0001F0900608E054B4F09006227404F0905E
:10008B00060AE0549BF0900608E04401F0E044407F
:10009B00F0900622E020E208900582E004F080F167
:1000AB009006227404F0900608E054B4F0900630E9
:1000BB00E0900520F0900608E04402F0E04440F0A8
:1000CB00900622E020E208900583E004F080F19096
:1000DB0006227404F0900608E054B4F0900631E068
:1000EB00900521F0900608E04401F0E04440F090C8
:1000FB000622E020E208900584E004F080F19006EF
:10010B00227404F0900608E054B4F0900630E090AE
:10011B000522F0900608E04402F0E04440F090061F
:10012B0022E020E208900585E004F080F1900622A1
:10013B007404F0900608E054B4F0900631E090059A
:10014B0023F09002B07410F0900630E0D394055079
:10015B001F900631E0940550179001E4E054607055
:10016B000F900560E004F090062074DBF00211990B
:10017B0090031AE020E60302063F900591E044014C
:10018B00F090031DE030E40302040A900592E04472
:10019B0001F0900630E0F4600302025F900593E0FB
:1001AB004401F090031AE054307030900631E0C3F4
:1001BB009414500E9005947401F090058F745102B5
:1001CB0006FC900631E0D394A54003020BFD90058D
:1001DB00947402F090058F1402071D90031AE054DB
:1001EB003064107031900631E0C39428500E9005A6
:1001FB00947403F090058F74520206FC900631E064
:10020B00D394A54003020BFD9005947404F0900564
:10021B008F740202071D90031AE0543064206003B0
:10022B00020BFD900631E0C39450500E9005947470
:10023B0005F090058F74530206FC900631E0D394C1
:10024B00F54003020BFD9005947406F090058F7436
:10025B000302071D900631E0F4600302031F9005B3
:10026B0093E04402F090031AE05430703190063062
:10027B00E0C39414500E9005947401F090058F74A4
:10028B00540207E4900630E0D394A54003020BFD23
:10029B009005947402F090058F7404020805900386
:1002AB001AE0543064107030900630E0C39428503C
:1002BB000E9005947403F090058F74550207E4902B
:1002CB000630E0D394A54003020BFD900594740413
:1002DB00F090058F0402080590031AE05430642057
:1002EB006003020BFD900630E0C39450500E900556
:1002FB00947405F090058F74560207E4900630E075
:10030B00D394F54003020BFD9005947406F0900511
:10031B008F020805900593E04404F0900631E0FF4E
:10032B00900630E0D39F4026900631E0FF900630D8
:10033B00E09FC3940A4017E0D394F54003020BFDF2
:10034B009005947401F090058F741102086190066A
:10035B0030E0FF900631E0D39F4026900630E0FF5F
:10036B00900631E09FC3940A4017E0D394F5400305
:10037B00020BFD9005947402F090058F7412020825
:10038B00B690031AE054306007E0543064107031BB
:10039B00900630E0D39428500E9005947403F0909F
:1003AB00058F742102093A900630E0D394A54003DF
:1003BB00020BFD9005947404F090058F74310209C3
:1003CB007690031AE0543064206003020BFD900614
:1003DB0030E0D39450500E9005947405F090058F37
:1003EB00742202093A900630E0D394F54003020BD5
:1003FB00FD9005947406F090058F74320209769087
:10040B00031DE020E403020BFD900592E04402F093
:10041B00900631E0D3941440030204B8900593E0A6
:10042B004401F090058F7441F0900630E0C39419AD
:10043B004017E0D3944250119005947401F090064C
:10044B000CE054F04401F0804C900630E0D3944221
:10045B004017E0D3947B50119005947402F09006F2
:10046B000CE054F04402F0802C900630E0D3947BE7
:10047B004017E0D394CC50119005947403F0900680
:10048B000CE054F04403F0800C900630E0D394CC95
:10049B004003020A2B90063AE04402F0900609E072
:1004AB004410F0E054EFF090040F7404F090063019
:1004BB00E0D394144003020555900593E04402F0F9
:1004CB0090058F7442F0900631E0C394194017E009
:1004DB00D3944250119005947401F090060CE054A3
:1004EB00F04404F0804C900631E0D394424017E086
:1004FB00D3947B50119005947402F090060CE05449
:10050B00F04408F0802C900631E0D3947B4017E048
:10051B00D394CC50119005947403F090060CE054D6
:10052B00F0440CF0800C900631E0D394CC400302E5
:10053B000AD190063AE04402F0900609E04410F02C
:10054B00E054EFF090040F7440F0900630E0C39449
:10055B00195003020BFD900631E094195003020B66
:10056B00FD900593E04404F0900630E09419401898
:10057B00E0D394425012900594E04401F090060CA5
:10058B00E054FC4401F08040900630E0D3944240AC
:10059B0018E0D3947B5012900594E04402F090063F
:1005AB000CE054FC4402F0801F900630E0D3947BA7
:1005BB004016E0D394CC5010900594E04403F09097
:1005CB00060CE054FC4403F0900631E0C394194050
:1005DB0019E0D394425013900594E04410F0900628
:1005EB000CE054F34404F0020BDF900631E0D3949B
:1005FB00424019E0D3947B5013900594E04420F0D3
:10060B0090060CE054F34408F0020BDF900631E047
:10061B00D3947B5003020BDFE0D394CC4003020B4B
:10062B00DF900594E04430F090060CE054F3440C5A
:10063B00F0020BDF900591E04402F090031AE054B6
:10064B00036401600302099B900592E04401F09062
:10065B000630E0F46003020742900593E04401F09A
:10066B0090031AE05430702F900631E0C39414506D
:10067B000D9005947401F090058F7457807390065C
:10068B0031E0D394A54003020BFD9005947402F066
:10069B0090058F7407807B90031AE05430641070C0
:1006AB002F900631E0C39428500D9005947403F0FD
:1006BB0090058F7458803A900631E0D394A540038F
:1006CB00020BFD9005947404F090058F7408804222
:1006DB0090031AE0543064206003020BFD90063146
:1006EB00E0C3945050159005947405F090058F74E9
:1006FB0059F090040F7420F0020BFD900631E0D3FB
:10070B0094F54003020BFD9005947406F090058F51
:10071B007409F090060CE054F04408F090063AE0AF
:10072B004402F0900609E04410F0E054EFF090041E
:10073B000F7410F0020BFD900631E0F46003020819
:10074B002A900593E04402F090031AE05430702F86
:10075B00900630E0C39414500D9005947401F09002
:10076B00058F745A8073900630E0D394A540030232
:10077B000BFD9005947402F090058F740A807B90AA
:10078B00031AE054306410702F900630E0C39428A5
:10079B00500D9005947403F090058F745B803A9024
:1007AB000630E0D394A54003020BFD90059474042E
:1007BB00F090058F740B804290031AE05430642044
:1007CB006003020BFD900630E0C39450501590056A
:1007DB00947405F090058F745CF090040F7402F024
:1007EB00020BFD900630E0D394F54003020BFD9015
:1007FB0005947406F090058F740CF090060CE05481
:10080B00F04402F090063AE04402F0900609E0440E
:10081B0010F0E054EFF090040F7401F0020BFD9018
:10082B000593E04404F0900631E0FF900630E0D3EE
:10083B009F4048900631E0FF900630E09FC3940A3A
:10084B004039E0D394F54003020BFD9005947401FD
:10085B00F090058F7413F090060CE054F04406F002
:10086B0090063AE04402F0900609E04410F0E054A0
:10087B00EFF090040F7421F0020BFD900630E0FFB7
:10088B00900631E0D39F4048900630E0FF90063150
:10089B00E09FC3940A4039E0D394F54003020BFD6B
:1008AB009005947402F090058F7414F090060CE090
:1008BB0054F04409F090063AE04402F0900609E047
:1008CB004410F0E054EFF090040F7412F0020BFDA3
:1008DB0090031AE054306007E054306410702F908E
:1008EB000630E0D39428500D9005947403F09005D6
:1008FB008F7423803A900630E0D394A54003020B0B
:10090B00FD9005947404F090058F7433805D900313
:10091B001AE0543064206003020BFD900630E0D3E4
:10092B00945050309005947405F090058F7424F01A
:10093B0090060CE054F04405F090063AE04402F0C7
:10094B00900609E04410F0E054EFF090040F74228D
:10095B00F0020BFD900630E0D394F54003020BFD43
:10096B009005947406F090058F7434F090060CE0AB
:10097B0054F0440AF090063AE04402F0900609E085
:10098B004410F0E054EFF090040F7411F0020BFDE3
:10099B0090031AE0540364026003020BFD9005926E
:1009AB00E04402F0900631E0D394144003020A5560
:1009BB00900593E04401F0900630E0C39419401782
:1009CB00E0D3944250119005947401F090060CE022
:1009DB0054F04401F08055900630E0D39442401718
:1009EB00E0D3947B50119005947402F090060CE0C8
:1009FB0054F04402F08035900630E0D3947B4017DE
:100A0B00E0D394CC50119005947403F090060CE055
:100A1B0054F04403F08015900630E0D394CC400C96
:100A2B00900597E004F0900630020ADA90058F7477
:100A3B0043F090063AE04402F0900609E04410F0CF
:100A4B00E054EFF090040F7404F0900630E0D39470
:100A5B00144003020B00900593E04402F090063122
:100A6B00E0C394194017E0D394425011900594744D
:100A7B0001F090060CE054F04404F0805A900631DB
:100A8B00E0D394424017E0D3947B501190059474BB
:100A9B0002F090060CE054F04408F0803A900631D6
:100AAB00E0D3947B4017E0D394CC50119005947411
:100ABB0003F090060CE054F0440CF0801A900631D1
:100ACB00E0D394CC4011900597E004F0900631E010
:100ADB00900598F002006190058F7444F090063AEF
:100AEB00E04402F0900609E04410F0E054EFF0907F
:100AFB00040F7440F0900630E0C394195003020BBE
:100B0B00FD900631E094195003020BFD900593E024
:100B1B004404F0900630E094194018E0D39442500E
:100B2B0012900594E04401F090060CE054FC440153
:100B3B00F08040900630E0D394424018E0D3947B91
:100B4B005012900594E04402F090060CE054FC44E3
:100B5B0002F0801F900630E0D3947B4016E0D394D4
:100B6B00CC5010900594E04403F090060CE054FC3C
:100B7B004403F0900631E0C394194018E0D394423B
:100B8B005012900594E04410F090060CE054F3449E
:100B9B0004F08040900631E0D394424018E0D394A7
:100BAB007B5012900594E04420F090060CE054F337
:100BBB004408F0801F900631E0D3947B4016E0D3BD
:100BCB0094CC5010900594E04430F090060CE05417
:100BDB00F3440CF090058F7445F090063AE0440214
:100BEB00F0900609E04410F0E054EFF090040F741D
:100BFB0044F090040FE0FF64016005EF642170394D
:100C0B00900312E04401F0900595E04401F0A374C9
:100C1B0001F0900221E054DFF0900608E054DFF081
:100C2B00E04410F0E0900230F0900615E04420F024
:100C3B00900120E054DF020D1190040FE0FF6410CF
:100C4B006005EF64127039900312E04401F09005D7
:100C5B0095E04402F0A37402F0900221E054DFF01F
:100C6B00900608E054EFF0E04420F0E0900230F002
:100C7B00900615E04420F0900120E04420020D1175
:100C8B0090040FE0FD6404703D900312E04401F00A
:100C9B00900595E04404F0A37404F0900221E05415
:100CAB00DFF0900608E054DFF0E04410F0E0900233
:100CBB0030F090061574DFF0900120E054DFF090D7
:100CCB00062174928040ED64407044900312E0441E
:100CDB0001F0900595E04408F0A37408F090022110
:100CEB00E054DFF0900608E054EFF0E04420F0E031
:100CFB00900230F090061574DFF0900120E0442054
:100D0B00F09006217449F090061174F8F0806A9007
:100D1B00040FE0FD6420702F900595E04410F0A3C4
:100D2B007410F090031AE030E64F900312E054FE7B
:100D3B00F090061174FFF0900615E0547FF09002CE
:100D4B0013E04480F08032ED6402702D900595E045
:100D5B004420F0A37420F090031AE030E61B9003BC
:100D6B0012E054FEF090061174FFF0900615E0545B
:100D7B00BFF0900213E04440F0900201E0547FF08A
:100D8B0090062074DBF0900628E030E56F90031C92
:100D9B00E020E65C90060AE030E615E0549BF0900C
:100DAB000607E04480F0E0547FF09004057401F0F6
:100DBB0090060AE0549BF09006227404F090060A09
:100DCB00E04420F0E04440F0900622E020E208905E
:100DDB000586E004F080F19006227404F090060A78
:100DEB00E0549BF0E04404F0E054FBF0D2ABD28E25
:100DFB009005A3E004F09006207424F0900629E0FF
:100E0B0020E003020E9C90040FE0B402099006212F
:100E1B007449F0021199900624E030E61C90031CF3
:100E2B00E030E015900608E030E50E9005B4E004E4
:100E3B00F09006217449020ED69005A4E004F090C0
:100E4B000615E04420F0E04440F090040FE4F090ED
:100E5B000213E0543FF0900590E4F0A3F0A3F0A34D
:100E6B00F0A3F0A3F0A3F090058FF0900312E044F1
:100E7B0001F090060CE054F0F090063AE04402F0DA
:100E8B00900609E04410F0E054EFF090062174490D
:100E9B00F0900629E020E103020F3590040FE0B437
:100EAB0020099006217492F0021199900624E030EB
:100EBB00E62090031CE030E019900608E030E412C5
:100ECB009005B5E004F09006217492F09006240290
:100EDB0011969005A5E004F0900615E04420F0E093
:100EEB004480F090040FE4F0900213E0543FF09034
:100EFB000590E4F0A3F0A3F0A3F0A3F0A3F0A3F00C
:100F0B0090058FF0900312E04401F090060CE05432
:100F1B00F0F090063AE04402F0900609E04410F03D
:100F2B00E054EFF09006217492F0900629E030E245
:100F3B0010C2ABC28E9005A6E004F090062174247B
:100F4B00F090062CE030E0279005A7E004F090032A
:100F5B001CE030E20F900221E04420F09004067474
:100F6B0001F08005900406E4F09006247401F090E3
:100F7B00062DE020E5030210369005A8E004F09062
:100F8B0001E2E030E02B9001E3E030E02490060832
:100F9B00E030E40B90060CE054F04403F0807490C6
:100FAB000608E030E53B90060CE054F0440CF08072
:100FBB00629001E2E030E02B9001E3E020E024902E
:100FCB000608E030E40B90060CE054F04402F0808D
:100FDB0010900608E030E50990060CE054F0440848
:100FEB00F080309001E2E020E03B9001E3E020E074
:100FFB0034900608E030E40B90060CE054F044010A
:10100B00F08010900608E030E50990060CE054F0F3
:10101B004404F090063AE04402F0900609E04410D4
:10102B00F0E054EFF09006257420F090062DE030A0
:10103B00E64A9005A9E004F090061174F8F09006CA
:10104B0015E04440F0900213E0543FF090040FE49D
:10105B00F0900201E04480F090040DE4F0A3741EC4
:10106B00F090040D74FFF5F01216E245F070F2905B
:10107B000120E04410F09006257440F090062DE01E
:10108B0030E74A9005AAE004F090061174F8F0904E
:10109B000615E04480F0900213E0543FF090040FEB
:1010AB00E4F0900201E04480F090040DE4F0A374AE
:1010BB001EF090040D74FFF5F01216E245F070F27D
:1010CB00900120E04410F09006257480F090062AE1
:1010DB00E030E365900323E024AB604B24DE6047F4
:1010EB002478601424667046900312E054FEF0904E
:1010FB000310E04401F080369001E4E05460702E60
:10110B00900201E04480F090040DE4F0A3741EF013
:10111B0090040D74FFF5F01216E245F070F2900199
:10112B0020E04410F08007900221E054DFF09003A0
:10113B0023E4F09006227408F090062AE030E41ABB
:10114B009005ABE004F0900221E054DFF090031C1B
:10115B00E054FBF09006227410F090062AE030E584
:10116B001A9005ACE004F0900221E054DFF09003FC
:10117B001CE054FBF09006227420F090062AE0301D
:10118B00E60C9005ADE004F09006227440F0D00719
:10119B00D005D000D0D0D082D083D0F0D0E0329028
:1011AB000201E04410F090022E7481F09002527410
:1011BB00BFF0E4900315F090022FE04460F090062E
:1011CB0007E04460F09006097464F090060A74100E
:1011DB00F090060B7450F0E4900600F0900601744A
:1011EB0002F0E4900603F09006047482F09006126D
:1011FB007487F090061474BEF0900213E0543FF025
:10120B00900246E04402F09002457402F0E4900232
:10121B0022F0900227F0900220E04420F09002216F
:10122B00E054DFF09003817458F09001077402F0E2
:10123B0090038A74E6F090038B740AF09003A47405
:10124B00C4F09003AD7404F090032E7402F090067A
:10125B00427405F090064C74B8F090064D740EF085
:10126B0090064E7462F0E490064FF0900650F090AA
:10127B0006517427F090037274C8F0E4900373F076
:10128B009003747420F0E4900375F090037674F07F
:10129B00F0E4900377F0900378F0900379F09001ED
:1012AB000704F09001097403F090020974C0F090E8
:1012BB00020BE04410F09003DDE054BFF0E044205B
:1012CB00F09003D9E04480F0900637E04408F090AA
:1012DB00031CE054BFF09002B07410F090005BE080
:1012EB0020E030E04401F090005CE004F090031249
:1012FB0074FEF09003137401F09003147404F090D7
:10130B000201E0547FF09006087484F0E090023004
:10131B00F0801A9003DDE04410F0900275E0543039
:10132B00600B90021FE04410F0E054EFF09002309D
:10133B00E0900608F090031074FFF0900311F0900A
:10134B00061074C7F090061174F8F02278FFE4F6DB
:10135B00D8FD9004007F007E02E4F0A3DFFCDEFAF0
:10136B0075810D0213AC02160AE493A3F8E493A360
:10137B004003F68001F208DFF48029E493A3F854CC
:10138B0007240CC8C333C4540F4420C8834004F44F
:10139B0056800146F6DFE4800B0102040810204062
:1013AB00809016A4E47E019360BCA3FF543F30E50C
:1013BB0009541FFEE493A360010ECF54C025E060D7
:1013CB00A840B8E493A3FAE493A3F8E493A3C8C5A5
:1013DB0082C8CAC583CAF0A3C8C582C8CAC583CA96
:1013EB00DFE9DEE780BE90060AE0549BF0E0442084
:1013FB00F0E04440F0900622E020E211900405E07A
:10140B006003E4F022900581E004F080E89006226E
:10141B007404F090060AE0549BF0E04404F0E054AE
:10142B00FBF0900632E075F004A4FF900410E5F099
:10143B00F0A3EFF0900375E0FE900374E07C0024C2
:10144B0000FFEC3EFEC3900411E09F900410E09E61
:10145B005013900221E054DFF0E4900406F0900367
:10146B001CE054FBF022C0E0C083C082C0D075D01A
:10147B0000C007C28FC28E900407E004F0E0FF901B
:10148B0005FDF0758D3C758BB0EF6432704790069F
:10149B000AE0549BF09006227404F090060AE04494
:1014AB0020F0E04440F0900622E020E2089005870F
:1014BB00E004F080F19006227404F090060AE054E8
:1014CB009BF0E04404F0E054FBF0900407E4F09050
:1014DB0005FEE004F0D28ED007D0D0D082D083D0DE
:1014EB00E032C0E0C083C082C0D075D000C007908E
:1014FB000252E0F4FF900272E054405F60429002AF
:10150B0073E02460602724D0702F900274E05401A4
:10151B00FF900246E054FE4FF0900274E030E11968
:10152B00900245E04480F0E0547FF0800C9003A0E3
:10153B007431F09002B07410F0900272E05440F0ED
:10154B00D007D0D0D082D083D0E032E4780DF678BB
:10155B000DE6FD75F003A42437F582E43417F5830B
:10156B00E493FFF4603EEFFEED75F003A42438F531
:10157B0082E43417F583E4937C002400FFEC3E8F68
:10158B0082F583C083C082E0FFE675F003A42439A3
:10159B00F582E43417F583E493FEEF4ED082D083CB
:1015AB00F00680AB22E4780DF6780DE6FD75F003BE
:1015BB00A42446F582E43417F583E493FFF4603EEC
:1015CB00EFFEED75F003A42447F582E43417F583A1
:1015DB00E4937C002400FFEC3E8F82F583C083C034
:1015EB0082E0FFE675F003A42448F582E43417F596
:1015FB0083E493FEEF4ED082D083F00680AB229033
:10160B00031F7480F0120006121716120016120038
:10161B000E1211AA12172D900500E004F09002266D
:10162B00E06440F0900406E060ED90064EE030E69A
:10163B00E6900620E0541870DE1213F180D9C0E05A
:10164B00C083C082C0D0C28DC28C900408E004F06D
:10165B009005FBE004F0758C9E758A58900408E0A9
:10166B00B40A02E4F0D28CD0D0D082D083D0E03256
:10167B00E4780CF6780CE6C39F501D90040D7401B2
:10168B00F0A37477F090040D74FFF5F01216E24599
:10169B00F070F2780C0680DC22410408004104074C
:1016AB000041040B0041040F0041040C00410400F5
:1016BB0000410406004104050000759850758C9E8E
:1016CB00758A58758D3C758BB0438911C288C28A57
:1016DB0090063B7490F022A3F8E0C5F025F0F0E5FE
:1016EB0082158270021583E0C838F0E8228D098BD1
:1016FB000A9003827407F09000647401F022C2AF69
:10170B00C2ACC2ABC2A8C2AAC2A9221215561215EC
:10171B00B012000902000AC2ABC2A9D2A8D2AAD247
:10172B00AF22E4F50BFB7D01FF0216F8029CFF02D2
:0E173B00E6FF02D805024105FFFFFFFFFFFF9A
:1020000055AA011E476F6F676C6500000000000055
:102010000000000000000000494E540107010000CC
:10202000505338383035465720476F6F676C6520FE
:102030003078303720666F722041322C20323031B8
:10204000383034323700000000000000000000008B
:102050000000000000000000000000000000000080
:102060000000000000000000000000000000000070
:102070000000000000000000000000000000000060
:102080000000000000000000000000000000000050
:102090000000000000000000000000000000000040
:1020A0000000000000000000000000000000000030
:1020B0000000000000000000000000000000000020
:1020C0000000000000000000000000000000000010
:1020D0000000000000000000000000000000000000
:1020E00000000000000000000000000000000000F0
:1020F00000000000000000000000000000000000E0
:1021000000000000000000000000000000000000CF
:10211000000000000000000000004E6F20426F6FC2
:10212000746C6F61646572000000000000000000C4
:10213000000000000000000000000000000000009F
:10214000000000000000000000000000000000008F
:0A2150000000000000000000000085
:00000001FF
